:020000041000EA
:1000000000B5324B212058609868022188439860DF
:10001000D860186158612E4B002199600221596106
:100020000121F02299502B49196001219960352056
:1000300000F044F80222904214D00621196600F024
:1000400034F8196E01211966002018661A6600F04E
:100050002CF8196E196E196E052000F02FF8012189
:100060000842F9D1002199601B49196000215960AB
:100070001A491B48016001219960EB211966A021F2
:10008000196600F012F800219960164914480160C1
:100090000121996001BC002800D000471248134993
:1000A000086003C880F30888084703B5996A0420EC
:1000B0000142FBD001200142F8D103BD02B5186610
:1000C0001866FFF7F2FF186E186E02BD00000240BE
:1000D000000000180000070000035F00212200005C
:1000E000F4000018222000A00001001008ED00E03C
:1000F00000000000000000000000000074B24E7A12
:1001000000200420F7010010C3010010C5010010F9
:10011000C1010010C1010010C1010010C101001097
:10012000C1010010C1010010C1010010C701001081
:10013000C1010010C1010010C9010010CB01001065
:10014000CD010010CD010010CD010010CD01001037
:10015000CD010010CD010010CD010010CD01001027
:10016000CD010010CD010010CD010010CD01001017
:10017000CD010010CD010010CD010010CD01001007
:10018000CD010010CD010010CD010010CD010010F7
:10019000CD010010CD010010CD010010CD010010E7
:1001A000CD010010CD010010CD010010CD010010D7
:1001B000CD010010CD010010CD010010CD010010C7
:1001C00000BE00BE00BE00BE00BE00BE00F04BF888
:1001D000103800BEF2EB88713073001050730010BD
:1001E0003402001090A31AE700202149086006C8D5
:1001F00081F3088810471F48006800282FD10DA4FC
:100200000ECC002902D000F012F8F9E71A491B4A77
:10021000002000E001C19142FCD1194988471949E9
:1002200088471949884700BEFDE701C901C29A42C3
:10023000FBD3704750730010C0000020B0080020AE
:10024000407B00100000042000000420407B0010D0
:1002500000100420001004200000000070470B482C
:1002600002F082FF0047EFF30580C0B27047000044
:1002700008ED00E0000000D0B0080020301600209B
:1002800085120010E502001071130010575600008F
:1002900006005250ABB36053F0700010060052508D
:1002A000861C030200710010060052505422A29DC9
:1002B0000871001005005250DE65F468407B0010A4
:1002C000F8B5C046044B10B5002B03D003490448D1
:1002D00000E000BF10BDC04600000000C8150020AF
:1002E000686E0010F8B5D024802504F03DF8162083
:1002F00000F020F82406ED030C4E0D4F656200203F
:1003000004F036F8C0B231280BD03028F7D13800CD
:10031000A56104F01DF8002004F02AF8C0B23128CD
:10032000F3D13000656104F013F8E8E7686E00105F
:100330006C6E00100123D0228340120693629361F9
:10034000094A40219446830063441A68C0004A4029
:10035000803111408022520113431960034B9C46A7
:10036000052360444360704704C0014000400140E1
:1003700070B5EFF3108C72B60D4D2B68002BFCD0CE
:10038000BFF35F8F0724CB08C618C05C01230C4065
:10039000A3401C000440034207D118433070BFF350
:1003A0005F8F2C608CF3108870BD100000F0E2FFAE
:1003B0002C0100D0F8B54746CE46884680B5EFF30D
:1003C000108C72B6214D2C68002CFCD0BFF35F8FCF
:1003D0009A422CD8D4080727055D06190124174036
:1003E000BC402C421FD007210127894609E0D408D0
:1003F000055D06194C4639001440A1400C00294205
:1004000011D001329342F2D201204042BFF35F8FFC
:1004100000220E4B1A608CF3108800280FDBC0BC42
:10042000B946B046F8BD254310003570EEE7BFF37E
:100430005F8F00232B608CF31088012040424346DD
:10044000002BECD0089800F095FFC0462C0100D09E
:10045000024B18688007C00F7047C04600C00640B6
:100460000021044B044ABFF35F8F02C39342FAD1C9
:100470007047C046000100D0800100D0044A1078C7
:10048000431CDBB2172B00D9102313707047C046F2
:100490008803002010B5064B064C82B00100009383
:1004A00018221F232000FFF785FF02B010BDC046B1
:1004B000706E00102011002083680B4810B5844630
:1004C000614462441201090159189B185C684A682A
:1004D0000120944201D802D00020C0B210BD1A6899
:1004E0000B689A42F9D8F7E7FFFFFF0F0A4B19682C
:1004F000EFF3108072B60A68002AFCD0BFF35F8F5A
:100500001B68BFF35F8F00221A6080F3108840BF22
:10051000002000217047C046FC150020F8B5574662
:1005200045464E46DE46E0B599460CAB1C780DAB11
:100530001B78070090469A460568002C44D1AC7B96
:10054000002C3BD0660029683619033E89194B7888
:10055000AB73002B00D1EB7300238B704B700B70CF
:100560002C4BE218BB6812019B1842461A604A469F
:100570005A600A9A9A600B9ADA6000238B704B706B
:100580000B706B7B9B46002B2ED06B68220059466C
:10059000A86898475B465B005B44033B002819D082
:1005A000584629688E19B070CA18CB5C002B00D051
:1005B00073705B4614706B735C4516D0F0BCBB4621
:1005C000B246A946A046F8BD660029683619033E22
:1005D0008919C5E72A68D3189C709119925D002A81
:1005E00000D05A705B460B706C7342464B46387DA8
:1005F00000F0BAFB051E02D05346002B04D00E9B20
:10060000002BDBD01D70D9E72100386800F0FCFD1D
:10061000F5E7C046FFFFFF0FF0B5DE464E465746F2
:1006200045460023E0B58DB00A936B4B8200D3584A
:100630000B90994600239B464B46079300F01AFB0C
:10064000079C06000F006268EFF3108572B613680E
:10065000002BFCD022000794BFF35F8F2468637BDC
:100660009946002B66D092685C4B90464B441B0128
:10067000984443461A685B6810001900801BB94112
:1006800000295EDD0B9800F06FFB002300269846E2
:1006900000279A46079C6368BFF35F8F5A461A602B
:1006A00085F310885346002B08D10028C6D10DB021
:1006B000F0BCBB46B246A946A046F0BD0A9B4146E7
:1006C00018024B461843D047089009916268EFF32F
:1006D000108572B61368002BFCD00794BFF35F8FB0
:1006E0000899099A002A47DB114303D0079B1B692D
:1006F000002B5CD1079B1B68D97B002906D01A68A8
:100700004800411852184946033A51704A46DA7374
:100710004B46079A013BD168CA5C0132CA545B461A
:10072000079A13615368BFF35F8F5A461A6085F3C7
:10073000108883E700230026984600279A46002069
:10074000A8E7002901D100289CD10021200000F059
:10075000DDFC43461E685F689B68079A9A464346DD
:10076000DB689846D3684B44013B1B780A931B0215
:100770000343136100208DE72369002BBAD03300B7
:100780003C005B1A94411A002300A74219D89F42EB
:100790001BD05946049101210391494602914146DB
:1007A0000191514607980091FFF7B8FEB7E700F0B6
:1007B00061FA089A099B06000F0092197B41994241
:1007C000E5D901225242D317E3E79642E1D901224B
:1007D0005242D317DDE7C046E0150020FFFFFF0FB0
:1007E000F8B557464E464546DE46E0B53E4D814695
:1007F0008A466A68EFF3108872B61368002BFCD043
:10080000BFF35F8F2E68B47B002C38D0670033684D
:100810003F19033FDB195A78B273002A00D1F273F3
:10082000324AA118AA680901521849461160514676
:1008300051602F4991600021D160997059701970F1
:10084000737B9B46002B32D0736822005946B068F8
:1008500098475B465B005B44033B00281DD058462D
:100860003168CF19B870CA18CB5C002B00D07B70F0
:100870005B46147073735C451AD0002623E06B68E6
:10088000BFF35F8F1C6088F3108801204042F0BCEA
:10089000BB46B246A946A046F8BD3268D3189C7044
:1008A000D119D25D002A00D05A705B460B70747368
:1008B0004A465346287D00F057FA061EDDD0210037
:1008C000286800F0A1FCEB681B19013B19786B68E4
:1008D000BFF35F8F00221A6088F310880020002E7B
:1008E000D5D108022043D2E78C030020FFFFFF0F81
:1008F000ED04001010B5124C6368002B04D00A21DF
:10090000104800F0BFFA10BD23000F4A10212068E4
:1009100000F01AFB032000F0A1F9032000F094FA84
:1009200003200A4900F0DAF9FFF7A8FD084B9C46BE
:10093000032360442375074B80006060DC60DEE7C2
:100940008C030020FC150020B904001019060010CB
:1009500040000034E0150020004870478C03002060
:10096000F0B54E465746DE464546E0B585B00193A4
:1009700010AB1B780600039300239A469946009219
:100980007268EFF3108B72B61368002BFCD0BFF3C4
:100990005F8F3568AC7B002C00D17EE067002B6850
:1009A0003F19033FDB195A78AA73002A00D1EA7372
:1009B000504AA118B26809015218009801991060B4
:1009C00051600E9991600F99D1604A469A705A70A1
:1009D0001A706B7B9846002B00D171E06B68220087
:1009E0004146A868984743465B004344033B0028C0
:1009F0005CD040462968CF19B870CA18CB5C002B70
:100A000000D07B70434614706B73444559D0F36833
:100A10001B19013B18787368BFF35F8F4A461A6051
:100A20008BF310885346002B08D10002204305B0F9
:100A3000F0BCBB46B246A946A046F0BD039B002BC6
:100A400055D00E9B00200F99984703000B434ED0C2
:100A500004000D1E0DDA0098019902000B00121B14
:100A6000AB41994213D839D000920193039B9A4627
:100A700086E700F0FFF802000B00A4185D41009427
:100A80000195A94203D8F1D100998A42EED90123F8
:100A90005B42DC1700930194E8E77368BFF35F8F54
:100AA0001C608BF3108801204042C0E72A68D318ED
:100AB0009C70D119D25D002A00D05A7043460B7049
:100AC0006C73307D009A019B00F04EF9824600283D
:100AD0009DD02100306800F097FB98E70099914283
:100AE000C2D901235B42DC1700930194BEE70020CA
:100AF0009DE7C046FFFFFF0FF8B5CE46474680B5DD
:100B000006000C00FFF76CFE031E11DC234A0020D8
:100B1000536AA34203D3926A0130B24203D3C0BCEA
:100B2000B946B046F8BD1B1B5A1E9341D8B2F6E732
:100B300020BF1B4D6968EFF3108872B60A68002A5F
:100B4000FCD0BFF35F8FFF222868D9B2477B1A40E1
:100B50008F420AD00768B9465700BC464F469444B6
:100B60006744033FBF78002F0FD0EF681B0ABA1805
:100B7000013A1278DBB29A420CD06B68BFF35F8FF8
:100B800000221A6088F31088C0E72A699342F4D1E2
:100B90002F61F2E700F038FBEFE7C0460040054068
:100BA0008C030020F0B5D6464F464646C0B5EFF35D
:100BB00005823F23134018001038EFF3108C72B6F3
:100BC00020490A68002AFCD0BFF35F8F012217007A
:100BD00087401D4C1600A24667631C4C2578A04632
:100BE0002C00C4402640224209D1BFF35F8F0E6023
:100BF0008CF31088E0BCBA46B146A846F0BD524618
:100C0000566A134A8400A25896420ED34246114BAC
:100C1000BD43E3581570BFF35F8F00220A608CF369
:100C20001088002BE6D09847E4E70B4A9B009046DB
:100C300043441A681A60BFF35F8F00230B608CF384
:100C40001088D7E7280100D0004005402F1600206B
:100C50000816002010100020D03F054010B5034BAF
:100C600001001800024AFFF783FB10BD2C1600207C
:100C70008C6E0010034B596A0A00986A596A8A42BE
:100C8000FAD170470040054070B504000D00124ACB
:100C9000536A1900966A536A8B42FAD130001900E0
:100CA00024184D41AB4211D80ED02B000A494A6A94
:100CB0009A42FCD307D1084A02E0516A994202D114
:100CC000916AA142F9D370BDA642EED90123012455
:100CD0006442E5175B42E9E70040054070B5040057
:100CE0000D00EFF3108672B61A4A1368002BFCD081
:100CF000BFF35F8F002D1BD0200000F0CBFC164906
:100D000081420AD0200000F0CDFC0121200000F03B
:100D1000A7FC0123A340114A1360114BA400E55026
:100D2000BFF35F8F00220B4B1A6086F3108870BDF3
:100D30000121A1400A4BA200D5500A4B20001A788D
:100D40008A4305491A7000F0D7FC0021200000F00A
:100D500087FCE5E7280100D0A50B001038600540AE
:100D6000101000202F160020F0B54F46D6464646FC
:100D7000C0B507002F4C616A0D00A66A616AA942DE
:100D8000FAD18B4208D805D00120E0BCBA46B14662
:100D9000A846F0BDB242F7D9EFF3108A72B62648E2
:100DA00001680029FCD0BFF35F8F0125BD402349B6
:100DB000204C8846097889462943C9B28C46414669
:100DC00060460870391D890065630A511C49B800E6
:100DD0004350216A0020294219D0616A0800A66A9E
:100DE000616A8142FAD18B4219D801D1B24216D838
:100DF000CC451DD00F4B1F221D625D6301233A407D
:100E00009340104A0120136043464A461A70BFF3CC
:100E10005F8F0022084B1A608AF31088B5E7002024
:100E2000BFF35F8F0022044B1A608AF31088ACE78F
:100E30000120ECE700400540280100D02F160020DB
:100E40000816002080E200E0EFF3108C72B60A4929
:100E50000B68002BFCD0BFF35F8F01238340074A50
:100E60000748136202789A430270BFF35F8F002332
:100E70000B608CF310887047280100D000400540BB
:100E80002F160020024B9C46614489000160704788
:100E90004000003410B50400FFF7F0FA0100200014
:100EA000FFF7F0FFFF232371BFF35F8F10BDC04634
:100EB00010B50400FFF7E2FA01002000FFF7E2FF9F
:100EC000FF23A380BFF35F8F10BDC04610B50400A1
:100ED0000120FFF7DFFA044B9C466044800020604D
:100EE000BFF35F8F10BDC0464000003470B50500F1
:100EF00014001600002915D00C00002A12D06B68CF
:100F0000806898477200630092191B192968033A98
:100F1000033B002808D08A189470C818CB5C002BBB
:100F20000FD10670200070BDCB189E7088188A5CA7
:100F3000002A02D104703400F4E75A7004703400BF
:100F4000F0E753700670EDE710B583600023CCB274
:100F500043730133426004738373C4730068421C9B
:100F6000012C05D90133DBB2137003329C42F9D155
:100F7000FF230B405A00D318C018002303384370D6
:100F800010BDC046F8B505000C1E07D0630001680F
:100F90001B19033BCB185A78002A01D12000F8BD59
:100FA000500080180338091800204F78487021003D
:100FB00058702800FFF79AFF390006002800FFF755
:100FC000E1FF0400002EE9D0002820D022003100EB
:100FD0006B68A86898476200730012199B1929680A
:100FE000033A033B002809D08A189670C818CB5CD6
:100FF000002B00D0537004703400CFE7CB189C70E6
:1010000088188A5C002A00D05A700670C6E734003F
:10101000C4E7C046F0B557464546DE464E46E0B505
:101020000D006B0001685B19DF1E0400C85D83B012
:101030000192CA1900284CD043001B18033BCB185F
:101040005E78B446002E16D1019E002E3ED0E67B7F
:10105000002E04D073009B19CB18033B5D70E57321
:1010600000282FD10023537003B0F0BCBB46B2461A
:10107000A946A046F0BD72006244033A8A1851782E
:1010800088460021517089465970320001002000C5
:10109000FFF72CFF43468246002B07D05B002168F8
:1010A0004344033BCB185A78002A16D14246514696
:1010B0002000FFF71BFF2168019BCA19002BC6D136
:1010C0000028CFD043001B18033BCB180021997098
:1010D000C8E7019B002BBAD1C4E750008018033841
:1010E00009184878834648464870587041462000A1
:1010F000FFF7FCFE594680462000FFF743FF4146BC
:1011000002002000FFF7F2FE8046CFE7F0B5574619
:101110004546DE464E46E0B583B00191457B04006E
:101120006B0000685B19DF1EC15DC21900294ED03B
:101130004B005B18033BC3185E78B446002E18D1F1
:10114000019E002E40D0E67B002E04D073009B1938
:10115000C318033B5D70E573002931D100232800DB
:101160005370617303B0F0BCBB46B246A946A046BB
:10117000F0BD72006244033A821850788046002025
:1011800050708146587032002000FFF7AFFE434692
:101190008246002B07D05B0021684344033BCB18F9
:1011A0005A78002A17D1424651462000FFF79EFE8A
:1011B000019B01002068C219002BC4D10029CDD0A9
:1011C0004B005B18033BC31800209870C6E7019BD7
:1011D000002BB8D1C2E750008018033809184878AE
:1011E000834648464870587041462000FFF77EFE0F
:1011F000594680462000FFF7C5FE41460200200008
:10120000FFF774FE8046CEE770B5040000292CD0AD
:10121000437B8B422ED005684800401803382818BD
:101220008278002A21D053009B18033BEA5CEE1819
:101230008A4202D11BE0002A08D053009B18033BCE
:10124000EB185A788A42F6D142785A70002301226C
:10125000837043702000FFF7DDFE617B02002000F9
:10126000FFF744FE6073012000E0002070BD43786A
:101270003370EBE701221900FFF7CCFE6073012009
:10128000F4E7C0462B4B2C4A70B51A602B4A2C4B06
:101290002C491A6014008B689C43FBD12A4D2B4EBD
:1012A000B54208D2013E761BB60808CD9847230008
:1012B0000134B342F9D100F07BF8254A204B1A6083
:1012C000204A9368DB43DB01DD09002BF9D1402282
:1012D000204B214E214C9A675A671A67DA66B4424E
:1012E00008D2236820000834002B1FD0FFF7E0FD50
:1012F000B442F6D31A4C1B4EC022B168200002F053
:1013000023FEB460FFF7ACF800F02EFBFFF7F2FA13
:10131000154C164EB44208D2013E361BB60808CC16
:1013200098472B0001359E42F9D170BDFFF7B2FD01
:10133000D5E7C04600E00040BFCDFBFEFE7F3C008D
:1013400000F0004000C0004094080020A4080020E5
:10135000FFFFFF0100F00140940800208C080020EE
:101360000000002000ED00E0A4080020B0080020EC
:1013700000BEFDE70FB400B5084883B002F042FF9D
:10138000049B002B07D005A91800019101F0CCFEA9
:10139000034802F037FF00BEFDE7C046B06E001004
:1013A000C06E001010B50148FFF7E4FFC46E0010D6
:1013B00010B50C2082B000F039FBFFF749F8002887
:1013C0000ED0854B854A1A605A609A60DA601A61BD
:1013D0005A619A61DA611A62814A5A6202B010BD9A
:1013E000804CA06700F078FB01227F4B1A60636C91
:1013F000012BFCD103227D4B1A607A4A936B012B9F
:10140000FCD1022401217A4A7A480533009400F085
:10141000BDFA0523784A01217848009400F0B6FA15
:10142000774B5A68FF2A02D8802252005A608022E5
:101430006E4B694C12011A602169002905D0606960
:1014400001F0ECFE01300138FDD1E0226C4B6D481B
:1014500019680A40026002221968514001320A40AC
:10146000042102609A681142FCD08021664A090179
:101470001160802252005A60644B2361644B5968AA
:10148000FF2900D85A6003220121574B1A60604A95
:1014900093681942FCD0E023106803405D48036064
:1014A000126803234A4002211340594A036093689B
:1014B0001942FCD08021584B090119608021574BFB
:1014C000490051606361564B5A68FF2A00D8596041
:1014D0008022544B12011A60E169002905D060692D
:1014E00001F09CFE01300138FDD1E0234C4A116827
:1014F0000B404D490B6080214C4B09011960802144
:10150000364B49005160E361494B5A68FF2A00D8C5
:1015100059608022474B12011A60216A002905D0C8
:10152000606901F07BFE01300138FDD1E023404AC3
:1015300011680B4040490B608021404B0901196044
:1015400080235B0053608022244BD20223623C4BF9
:101550005968914200D25A6080223A4B12011A60B7
:10156000616A002905D0606901F058FE0130013838
:10157000FDD1E023324A11680B4033490B608021D2
:10158000324B090119608023DB025360144B636204
:101590002F4B5A68FF2A02D8802252005A608022BC
:1015A0002C4B12011A60A169002905D0606901F075
:1015B00035FE01300138FDD1E023254A11680B408A
:1015C00025490B608021254B0901196080235B00B0
:1015D0005360124BA36101E724110020006CDC0270
:1015E0001BB70000008000403CB0004030B000401D
:1015F000002F68590080024000389C1C00C0024047
:10160000308000403090004030A00040001BB70008
:101610003C8000403C9000403CA000404059730793
:101620005480004054B000405490004054A000400A
:101630006080004060B000406090004060A00040CA
:101640006C8000406CB000406C9000406CA000408A
:101650004880004048B000404890004048A000400A
:1016600001238340002904D0034A1360034A136016
:101670007047034A1360FBE780E200E000E100E00E
:1016800080E100E001238340014A13607047C046B7
:1016900000E200E0024B10309B688000C0587047A9
:1016A00000ED00E070B50D00EFF3108672B60F4A42
:1016B0001368002BFCD0BFF35F8F0D4B10309B687D
:1016C00084001B590B4A934203D09D4201D0FFF77F
:1016D00069FE074B9B681D51BFF35F8FBFF35F8FA0
:1016E0000022024B1A6086F3108870BD240100D0DE
:1016F00000ED00E0CD010010F0B5DE4657464E4645
:101700004546E0B50C0083B0EFF3108A72B65C4A30
:101710001368002BFCD0BFF35F8F102291468144E9
:101720004A46584B96009B689D59574B98469D4298
:1017300005D0A54216D0554FEB1B2F2B14D9514B7A
:101740009B689D51BFF35F8FBFF35F8F00224C4BAF
:101750001A608AF3108803B0F0BCBB46B246A946B3
:10176000A046F0BD1D00EAE7012383409B465A4690
:10177000474B1B681A4000925A46464B1A60BFF30B
:101780005F8FFEF770FD0190002803D0814501D0E6
:10179000FFF708FE01232A0006209A4313003E4962
:1017A0001056DB1B5B415943090D936884469C42EC
:1017B0000AD15DE043001B189B00FB189868A0420B
:1017C00011D006201A0018560028F3DA009B002BCF
:1017D00005D05A46314B1A602D4B1A60AFE75A4676
:1017E0002C4B1A60ABE7062018568446002823DBF2
:1017F00062466146520051188900781884689C60DE
:10180000C479DC71062404579C71002C20DB80888D
:10181000400500150818F91A0918E0200905490DB6
:101820000002014399801E4B624419789200BA1855
:10183000917162461A70C9E7019800280BD1FF30F8
:10184000907118489080164A107811709871BDE711
:10185000BD210902E6E7144A1449D21A083A500297
:10186000400D01439980124952080A43DA80ADE7DE
:1018700013000028BCDA019A002AECD14546E2E7C1
:10188000240100D000ED00E0CD010010B4030020E1
:1018900000E100E080E100E0AAAA000080E200E0B0
:1018A0002D16002000BDFFFFEE03002000F0FFFF1B
:1018B00000F8FFFFF8B5012504000543FEF7D3FC4F
:1018C000EFF3108C72B6214A1368002BFCD0BFF3E3
:1018D0005F8F1F4E2100B7681E4A1F4B891A49416E
:1018E0004B431B0D59B28300F858A8421CD0062365
:1018F000D3568B421CD01223D3568B4222D01E23A8
:10190000D3568B4220D02A23D35603208B4210D0AB
:10191000124B1A781970A271BFF35F8F00220B4B24
:101920001A608CF31088F8BDB2680D48D050EFE70C
:10193000002043001B189B00D218FF239371094B12
:101940009380E5E70120F4E70220F2E7240100D0CC
:1019500000ED00E0B4030020AAAA00002D1600202C
:10196000CD01001000BDFFFF054B064A1360064A7B
:10197000136053609360D360136153619361704748
:101980008080808000E400E004E400E0F8B504001A
:101990000C2017001D000E0001F040FC43011B1A33
:1019A0009901C91AC90009188901380001F036FCEB
:1019B000069B29041B0319432368002B20DB174BCC
:1019C000174DE3185A4253418022520194461B039B
:1019D000144A63441360144A13601F00AA689743B3
:1019E000FBD1C023221D9B01134321222660A0604E
:1019F0001A602268002AFCDA0822E1601A60F8BD49
:101A00003F2322681340B342D9D1A3681B051B0DA5
:101A10008342D4D1E3680029D1D1F0E70040FDBF73
:101A200000C0004000E0004000F000408023024A77
:101A30009B000343D36270470080054010B514003B
:101A400080221C4BD2051A6000281AD001231A4AA2
:101A500018431A4BDA611A4A42401A625962986274
:101A60008022144BD2051A601649174A1160E022F1
:101A7000D2041A60002C07D18022144B12061A607F
:101A800010BD0E4BD861EBE763011B1B9A0080234E
:101A9000121912015B049A4208D20D4B1A60074BCF
:101AA0005A608022094BD2051A60E9E7084B094ABF
:101AB0001A60F4E700B00540D3C007B000800540CD
:101AC0002D3FF84FFCFF01000820014000A0054019
:101AD000C0150020FFFFFF00AA23064A1B01136068
:101AE0002F230549D360054B19605368002BFCDA9E
:101AF0007047C0460040024000B0FA00006002405B
:101B00007047C046F8B557464546DE464E46E0B5F6
:101B100098460A9B06009A460D9B0F0093461500B7
:101B20009B0710D10B9B0C9A93420CD213005C467E
:101B30000B9A9D1A5D44220043460134390020204F
:101B4000B047A542F7D10B9C6319002C09D01D00AA
:101B500053462A1B013C185D39004346B047002C10
:101B6000F6D10D9B9B070ED55B46EC1A0C9BA3424E
:101B700009D999462A004346390020200134B0474C
:101B80000135A145F6D82800F0BCBB46B246A946AF
:101B9000A046F8BDF0B54F464646D646C0B584B01F
:101BA00098460EAB1B7894469946129B0D9C109F4D
:101BB000119E9A0724D401221A409246002E5DD12C
:101BC000BC420CD21F2C00D9B4E00C9A551E302216
:101BD00001E0202C03D001342A55A742F9D85246FF
:101BE000002A0DD0A6420BD90C9A551E3022202C6B
:101BF00002D151E0202C4FD001342A55B442F9D102
:101C0000DA062DD55A0550D4002C4AD10F9A102A45
:101C100000D183E00F9A022A19D030220C9C227046
:101C20004A460124002A20D02D220C9D2A55013439
:101C300003930C9B62460093029643460194FFF780
:101C400061FF04B0E0BCBA46B146A846F0BD0C9CAA
:101C500060322270012430250C9A1219157001345B
:101C6000202CE5D04A46002ADED15A072CD41A0788
:101C7000DED520220C9D2A550134D9E7002A1CD03C
:101C80004A46002A2BD10C321A4228D1BC42A9D292
:101C90001F2C9AD9202E15D92024DA06C8D55A052A
:101CA00003D4A7421DD0B4421BD00F9A102A22D0D1
:101CB000022A0ED0202CBBD0CDE7BC42A0D21F2CD4
:101CC00000D882E720249BE72B220C9D2A55013463
:101CD000AEE7202CACD00C9A1219013436E0013E4C
:101CE000D4E7621E012C91D00F9D102D24D0022D1F
:101CF00029D01400AFE79A0607D4202C98D00C9A6C
:101D00001519013478222A70D4E7202C00D18FE7EE
:101D100058250C9A121915700134CBE79A0604D491
:101D200078220C9C2270012495E758220C9C22708A
:101D3000012490E7202452E7023C9D06E8D40C9D44
:101D40002D191400DEE70C9DAA4652446225157039
:101D5000B0E7C04610B5002800D110BD02F002FA6D
:101D6000FBE7C0460B0010B5002802D049681B688D
:101D7000984710BDF0B5DE4657464E464546E0B59D
:101D80009BB09B46249B89469846259B0A900B92C4
:101D90004046424619009A4601F011FD002800D045
:101DA000DCE0012240465146794B524201F002FDEF
:101DB000002800D0D2E0012240465146754B5242E5
:101DC00001F0E2FC002800D0C8E0002200234046D9
:101DD000514601F0D9FC002800D0BCE142465346F0
:101DE000099208938023289ADB001A400E92289AC1
:101DF0001A4201D1062326938023289A1B010999B0
:101E00001A40089B0E000D920B4300D0C6E000253F
:101E10000026002A00D19BE100230C93269A0C9BFC
:101E20009A4200DC9EE1D31A013B26938023289A34
:101E3000DB001A430023002728920C93279B0024E1
:101E4000BB4200D9DC1B0223289A1A400D92289A23
:101E5000134203D07B427B415B421C400C9B002B16
:101E600007D0099808992A00330001F02CFC09904A
:101E70000891002200234046514601F085FC0028CD
:101E800005D0802000068446089961440891289A6C
:101E9000414B0A9D13400493269B099A0293089B89
:101EA00003940092019349465B4628000B9A00F088
:101EB0008BF90400002F62D0289B220098061F2374
:101EC000C0179843631C984649465B466530A8474F
:101ED0000C9A0025D317D4185C40D30F9A46013FC3
:101EE00001E0202D13D00AAA94461F23200063444A
:101EF0000A2101355E1901F091F93031317020006D
:101F00000A2101F08BF926000400092EE9D80523E7
:101F10000693002304930A330393534605970A9FBD
:101F2000029312AB009342465B4649463800019546
:101F3000FFF730FE0D9B0400002B20D00B9BC51A31
:101F4000279BAB421BD91E0022005B46494620203E
:101F50000135B8470134AE42F6D810E0289B42461E
:101F60000493279B49460393269B0A980293534662
:101F7000009201935B460B9A00F026F904002000C2
:101F80001BB0F0BCBB46B246A946A046F0BDC04659
:101F9000FFFFEF7FFFFFEFFFFFF7FFFF734B089F90
:101FA0009C467800400D604401F01CFC704A714B67
:101FB00001F0A7FB704A714B01F07CFB3B03704AB8
:101FC0001B0B1A4304000D00300011006D4B002262
:101FD00001F067FB6C4A6D4B01F093FB02000B00B4
:101FE0002000290001F066FB01F014FC0C9001F0C8
:101FF000F9FB674A674B04000D0001F082FB0022E9
:10200000654B01F057FB01F005FC644A0600644B88
:102010002000290001F075FB040030000D000F9630
:1020200001F0E0FB5F4A604B01F06BFB02000B002C
:102030002000290001F035FB02000B0006000F0014
:1020400001F05FFB320004000D003B00300039005E
:1020500001F030FB002210901191544B2000290018
:1020600001F031FB0022524B01F024FB02000B0077
:102070002000290001F027FB00224E4B01F01AFB43
:1020800002000B002000290001F01DFB0D00802143
:10209000040032003B000020C90501F002FB0200F1
:1020A0000B002000290001F005FB02000B00109836
:1020B000119901F008FB0022314B01F0FBFA3E4B75
:1020C0000F9C9C4664440022230501F01AFB050086
:1020D0000E0002000B000998089901F055FB00283A
:1020E0000AD00C9B2800013B31000C930022304B9E
:1020F00001F0E9FA05000E00C6270C992B006331A8
:102100008F42BF410D997F420437002900D195E6E7
:10211000334300D182E6089C284A2100284B0998C5
:1021200001F040FB002808D000222100254B09982F
:1021300001F02AFB002800D070E6269B002B00D17E
:102140007CE60E9B5A1E9341269AD31A269375E677
:1021500004270C9372E64346099380231B065344DD
:1021600008933FE60023269360E6C04601FCFFFF8C
:10217000FB799F501344D33FB3C8608B288AC63F76
:102180000000F03F0000F83F61436F63A787D23F34
:1021900071A379094F930A400000E03F1655B5BB83
:1021A000B16B0240EF39FAFE422EE63F00002C40B0
:1021B0000000244000001840FF0300002D431CEBEA
:1021C000E2361A3F80842E41F0B54E46DE46574631
:1021D0004546E0B597B09946209E219F229B8346B5
:1021E000984607910C923B0032003000390001F014
:1021F000E6FA002800D0ADE1012230003900CC4BD6
:10220000524201F0C1FA002800D003E1012230005F
:102210003900C84B524201F0CDFA002800D0D9E075
:10222000002230003900C44B01F0C4FA002800D06D
:10223000BBE0002230003900C04B01F0A5FA0028B5
:1022400000D0B2E0002200233000390001F09CFAF7
:10225000002800D0D3E000230D93249B5B0501D41C
:102260000623984608AB9C4617220024302341469B
:10227000624404E0013413550139202C01D00929AE
:10228000F8D888463000390001F0C4FA4246AC4B19
:10229000D2009B181A685B6805000892099301F048
:1022A000A1FA02000B003000390001F0FAF9089A97
:1022B000099B01F026FA0A900B9101F0CFFA8246B1
:1022C00001F08CFA02000B000A980B9901F0E9F971
:1022D00000229C4B0A900B9101F06CFA002800D16F
:1022E000E2E001239C46E244504601F077FA020006
:1022F0000B000898099901F04DFA002802D000233C
:102300009A4601354346002B00D18BE008AB1726D7
:102310009C4608956644554614E001235B424344BD
:102320000A2128009A4600F079FF0134303137192C
:10233000397028000A2100F071FF092D00D8D0E083
:10234000D0460500202CE8D10EAB98460323249AF2
:102350001340012B00D0E8E0239A2023002A1DD04F
:102360000D9A002A00D0FDE024990C320A4215D0C3
:10237000239A013A2392239A9A4200D805E108AAA7
:102380009446172130226144202B07D02398013333
:10239000CA54834200D1E9E0202BF7D1249A01935B
:1023A0000392239A434602921EE0249B58460493CC
:1023B000239B00960197039343460C9A0293079937
:1023C0004B46FFF7D7FC17B0F0BCBB46B246A94658
:1023D000A046F0BD249B5B070ED403225A4B2499E0
:1023E0000192039123990291009358464B460C9A0F
:1023F0000799FFF787FBE6E70422544BEFE73B0022
:1024000032000020002101F04CF9012306000F00EA
:102410000D9322E7249B0393239B029304230193B0
:102420004B4BE1E7280001F0DDF902000B00300022
:10243000390001F036F9434B002206000F0001F08D
:10244000A3F90EAB984600280AD1002230003900CB
:102450003C4B01F0AFF9002802D1EB0700D5013564
:10246000202C00D172E708AA944617232800634461
:102470000A2101341E1900F0A9FE30312800317004
:102480000A2100F0A3FE051EEAD10323249A13407B
:10249000012B6DD0202C48D00D9B002B14D02D2269
:1024A0004146631C0A5579E700220A980B99254B8F
:1024B00001F06AF9002800D024E75346002B30D100
:1024C00001239C46E2441DE7249B5B0724D4249A05
:1024D0002300120700D461E72022414601330A5548
:1024E0005CE75746089D202C00D12DE722003021C3
:1024F0004046002F09D00132B154202A00D123E7F1
:10250000831A013BE318002BF5D10EAB98462E231E
:102510004146541C8B54A3E72B224146631C0A55A9
:102520003CE7DB0700D4EDE6CAE7202336E7C046E8
:10253000FFFFEFFFFFFFEF7F65CDCD4165CDCDC143
:10254000887000100000E03FD86E0010D06E0010C0
:10255000E06E0010249B0393239B029303230193BB
:102560000C4B41E7239A013A239217E7040091E7C5
:10257000239B002B8ED00D9B002B08D10C2224997D
:102580002300114200D1F6E6F2E61C0082E72300A8
:10259000EEE6C046DC6E0010F0B55746DE46454616
:1025A0004E46E0B5A1B01F002A9B90460A93C64A4A
:1025B000C64B83468A461A60002900D163E1387809
:1025C0000025002800D165E1C14B46469946C14B24
:1025D0000C93534609934B46DA4608930AE06B1C6A
:1025E00098462A0033000999D04745463878002894
:1025F00000D1BDE001372528F1D110239B460C3BCB
:102600009946023B9846013B00229C463878791C4B
:102610000300203BDBB2102B03D8089C9B00E3583F
:102620009F460300303B092B77D9002398462A2880
:1026300000D1B3E000230B932E2800D189E00300E2
:10264000683BDBB2122B1CD8A34C9B00E3589F467F
:1026500063460F001A43D9E743460F001A43D5E7F4
:102660004B460F001A43D1E75B460F001A43CDE7F4
:1026700008230F001A43C9E7802378785B001A43C8
:1026800001310F0067280AD82428A8D90300253B68
:10269000DBB2422BA3D80C999B00CB589F4603007A
:1026A000693BDBB20F2B9AD801218C4C9940A44690
:1026B0000C40A1466446214200D033E20A2B00D1EF
:1026C000EAE0072B8BD10A9B190008C98846002B2A
:1026D00000D17CE121210A43934610A98C461F2298
:1026E0000F21099862440A958C4615004946814697
:1026F00002E020290CD0130064461C402000373033
:10270000092C00D80738013168541A090F2BF0D86A
:102710004B460A9D8946099362E1002394460700CF
:10272000099C00E001319800C0184000C0190F78E2
:10273000030038003038303B0928F3D9984600238D
:10274000380062460F00099401310B932E2800D007
:1027500075E780237878DB001A430300303B092BB0
:1027600000D80EE12A2800D121E10F00013166E7EF
:10277000099BD346B0469A462C00A84501D843464B
:102780005D1E43462A0051460020D847200021B054
:10279000F0BCBB46B246A946A046F0BD0A9B01CBA1
:1027A0008046002804DB78780A930F00013141E766
:1027B000022002434046404280460A9378780F0048
:1027C000013137E780239B0078781A43013158E7BD
:1027D0007878682800D12EE2802301311A4350E72F
:1027E00078786C2800D120E280235B001A43013105
:1027F00047E7462800D192E107210A9B049242460E
:1028000007338B43190003920B9A504602920CC96E
:10281000009201930A912A0033000999FFF7D4FC32
:102820000500E3E66B1C98462A0033002520099931
:10283000D0474546DAE60A9B04339B46920700D40C
:102840004AE26B1C99460A9B2A00187809993300C2
:10285000D04743464544012B00D8E9E23B00B0464F
:102860004C4656469946099F22004346013439009A
:102870002020B047AC42F7D1B246099746464F46B2
:102880005B460A93B2E6164B38789B460025002833
:1028900000D099E6002470E70A9B02CB0E930B78D8
:1028A0008B469C4618000B9B002B00D08AE000282A
:1028B00023D002235B4201335B44994649465B4681
:1028C0009146099C0A000FE099250010BC150020D4
:1028D000E86E0010786F00102C6F0010419000001F
:1028E000011B0010934203D0597801330029F9D11C
:1028F00059465B1A4A469946099480231100DB0029
:1029000019400A911A4203D00B9B994500D9994668
:102910000223190011400D91134200D1B5E1634625
:10292000002B00D198E10A9B002B00D166E10B9BA4
:102930002A009C465B46AC445B1B64469B464B4668
:102940000B94B1460A935646BA46099F09E04B4696
:102950003900551CB0475B46585D002800D174E132
:102960002A009442F3D10A9B09975746B2464E4635
:1029700099460B9D0D9B002B00D06DE10E9B0A9399
:1029800034E60B0007000021099C88004018013341
:102990004000C0191F78010038003038303909284C
:1029A000F3D938000B911F000994591C47E60A9B84
:1029B000023701CBC143C91708400B900A933878FE
:1029C000791C3CE6002898D00B9B013B73E7102153
:1029D00010008843113108438346520500D47CE639
:1029E0005B460693082305930B9B2A000493102350
:1029F0000393002302934B46019318AB0093504678
:102A000033000999FFF7C6F8434605000A93EDE540
:102A1000202301009943472904D180231B011A4335
:102A200002239843452801D120231A4307210A9BFA
:102A30000492424607338B43190003920B9A504687
:102A400002920CC9009201930A912A00330009995D
:102A5000FFF790F90500C9E5622800D1FCE16F2875
:102A600000D15EE1582800D1EAE010239A43063BEA
:102A70000E938023DB001340692800D04DE10D92B6
:102A8000002B5AD001230D9A9A430D92692854D0F5
:102A9000642852D00D9A802311009B0019408B4668
:102AA0001A4200D0DBE1802311005B001940894607
:102AB0000A9904310F911A4200D0AFE213005B066D
:102AC00000D5B1E113001B0600D414E30A9B1B8858
:102AD0009B465B46002B00D0E7E10D9A10331100B6
:102AE00099430D91520500D4DFE1002399460D9BD7
:102AF0000693434605930B9B04930E9B039300237D
:102B000002934B46019318AB2A00009350463300C2
:102B10000999FFF73FF80F9B05000A9366E520230C
:102B20001A4369E610230E93782895D10C231100DF
:102B300099430D915205A5D4A8E70D9A8023110061
:102B40009B0019408B461A4200D0EDE08023110013
:102B50005B00194089460A9904310F911A4200D04E
:102B6000D5E113005B0600D53AE113001B0600D443
:102B7000BBE20A9B00229B5ED9175A184A4092B2C8
:102B80009346DA0F1492002B09D1802310220D995D
:102B9000DB000B4091430D91002B00D052E10D9AC8
:102BA0006123920600D54123DBB20A3B10A90A93A8
:102BB00043461F228C461693099B62445C4615953A
:102BC000BB464D469846B14617000E9E0AE030338C
:102BD000DBB201357B55B44200D22BE1202D00D170
:102BE00028E104003100200000F018FBCBB20929D5
:102BF000EDD90A9A94466344DBB2EAE75B465B1B75
:102C00009B463B0054469A463700099E2A003B00EB
:102C10003100A0475B460135585D0028F6D1534688
:102C20000996A2463E001F00A4E6C0239B00B87888
:102C30001A43F91C25E5C023B8781A43F91C20E58E
:102C400020231A43103B0E9370E70A9B09975746BF
:102C5000B2464E4699468DE6AB46C84500D88DE64D
:102C60004B4645445C46B0465646B946099FED1A68
:102C700022004346013439002020B047AC42F7D14E
:102C8000B246099746464F4678E64B460133C8455B
:102C900000D836E243464A465B199B1A99463B00E8
:102CA0004C46B14656469A46099F2A004B46013586
:102CB00039002020B047A542F7D1012343440997AA
:102CC0005746B2464E4699465B461B789C46604640
:102CD000002800D027E651E64346012B00D80EE23B
:102CE0006B1E98444446B0465646B946099F2A0092
:102CF0004346013539002020B047A542F7D1B246FE
:102D0000099746464F46A04643465D1C0A9B4246ED
:102D1000187809993300D047B2E5642800D1AEE6AF
:102D200004E708230E93A4E607220A9B0733934384
:102D3000013294469C4462460A920CCB9C46DB17B7
:102D400012931393129813990300534010936446FF
:102D50000B0063401193109B119C1B1A8C41109324
:102D600011946346DB0F149300239B4663461A437A
:102D70003AD00D9A6123920600D54123DBB20A3B7B
:102D80000F93434600221693534610A98C46914652
:102D9000179333001F3262444E46BA46159590464B
:102DA000109C119D99460E9F0CE03032D2B24346E2
:102DB00001369A55AB4500D17BE1202E00D17BE155
:102DC00004000D003A0000232000290000F068FAFA
:102DD000D2B2092AE9D90F9B9C466244D2B2E6E7F7
:102DE0000A9B1B781A00CBE60D9A10231100994319
:102DF0000D915205BDD5002399460D9B0693434680
:102E000005930B9B04930E9B0393149B02934B46D9
:102E1000019318AB2A000093504633000999FEF73E
:102E2000B9FE0500FFF7E2FB0A9B1B789B4650E6C4
:102E30004D4625E543460993169B5F4698464E4608
:102E4000A946159D0D9B0693434605930B9B049342
:102E50000E9B0393149B53E602230E9366E6072210
:102E60000A9B07339343013294469C4462460A927C
:102E70001A685B6810009B4613005A46134300D043
:102E800095E00D9A1033110099430D91520500D42D
:102E90008DE0002399460D9B0693434605930B9BBB
:102EA00004930E9B03930023B0E70D9A61239206CF
:102EB00000D5412310A91F228C46DBB20A3B0A939E
:102EC000099B62445C461495B3464D461597994656
:102ED00017000E9E08E03033DBB201357B55B4425B
:102EE0000ED3202D0CD004003100200000F096F904
:102EF000CBB20929EFD90A9A94466344DBB2ECE7D6
:102F00004B465E46A946159F149D0993EFE50A9B23
:102F10001B68DA1799185140DA0F89461692002B70
:102F200008D1802310220D99DB000B4091430D91B5
:102F3000002B30D10D9A6123920600D5412310A9B0
:102F40001F228C46DBB20A3B0A93099B62444C4623
:102F5000149515975D461700B34699460E9E08E0F6
:102F60003033DBB201357B55B4420ED3202D0CD06B
:102F700004003100200000F051F9CBB20929EFD94B
:102F80000A9A94466344DBB2ECE74B465E46159FD3
:102F9000AB46149D09930D9B0693434605930B9BEB
:102FA00004930E9B0393169B02935B46AAE50D9A2E
:102FB0006123920600D54123DBB20A3B0F934346BF
:102FC000002210A9159353468C46914616931F3242
:102FD000099B6244B2465C461495BB464D460600CA
:102FE000994690460E9F0BE03032D2B243460135EF
:102FF0005A550023A3426BD0202D6BD006000C0045
:103000003A0000233000210000F04AF9D2B2092A28
:10301000EAD90F9B9C466244D2B2E7E70A9B1B6841
:103020009946002B08D18023DB00110013401022A9
:1030300091430D91002B30D10D9A6123920600D55A
:10304000412310A91F228C46DBB20A3B0A93099B3D
:1030500062444C46149515975D461700B346994651
:103060000E9E08E03033DBB201357B55B4420ED3FF
:10307000202D0CD004003100200000F0CFF8CBB29E
:103080000929EFD90A9A94466344DBB2ECE74B4630
:103090005E46159FAB46149D09930D9B06934346D0
:1030A00005930B9B04930E9B0393002302935B46B3
:1030B00028E5A74200D880E6169B179A98464B460B
:1030C0005746B1461094119592461E00159D94E600
:1030D000B74291D9159B564698464B460993169B85
:1030E000A9469A465F46149DD5E60A9B1B68D917E8
:1030F0005A184A4044E50A9B1B689B46E9E4A846E7
:1031000002E69946E3E5C04600B585B0039101218A
:1031100002900093034813004A4202A9FFF73CFAC9
:1031200005B000BD651D001010B5094A0300146804
:1031300084B0002C08D0012200910648524203A915
:10314000A047012004B010BD01F05CF80020F9E7B1
:10315000BC150020551D001001480421014B1847E3
:103160000004002089310010142310B501001888D4
:1031700004331B88984710BD162310B5010018882A
:1031800002331B88984710BDF8B54746CE4680B538
:103190000F1E19D01423994604330400002501267C
:1031A00098464B461888434621681B88984701C4B7
:1031B000431E9841013540420640AF42F1D13000F4
:1031C000C0BCB946B046F8BD0126F8E7124A936F75
:1031D0009B0815D29066D166002905D0FFE7FFE76E
:1031E000FFE7516F106F704704B580210906C217C1
:1031F0005140002800D0C84303F016FE002104BD52
:10320000F0B5146E556E576F166FFFF7E3FF146637
:10321000556657671667F0BD000000D0114A936FDE
:103220009B0813D210665166002905D0FFE7FFE71F
:10323000FFE7516F106F704704B5002801D00020E0
:10324000C04303F0F1FD002104BDC046F0B5146E8B
:10325000556E576F166FFFF7E5FF14665566576793
:103260001667F0BD000000D094464E4A926F920857
:10327000624601D230E0C046F0B54A4EB56F6D08E7
:10328000FCD3346E756E776F366F00F025F8944678
:10329000444A14665566576716676246F0BDC046D5
:1032A0009446404A926F9208624601D258E0C04666
:1032B000F0B53C4EB56F6D08FCD3346E756E776F0C
:1032C000366F00F04DF89446364A146655665767D7
:1032D00016676246F0BDC046002B24DB11D00029E2
:1032E0003EDA00B5C943404200D1013100F038F860
:1032F000C943404200D10131DB43524200D1013386
:1033000000BD002AEBD1002801D1002905D0002002
:10331000C90FC90701D1C043410800B503F07CFDC6
:103320000022002300BD00B500290ADBDB43524226
:1033300000D1013300F014F8C943404200D10131FB
:1033400000BDC943404200D10131DB43524200D1AC
:10335000013300F005F8DB43524200D1013300BDD8
:10336000002923D1002B18D1002A0CD0BC460D4FC8
:1033700038667A6600210023FFE7FFE7FFE77A6FF0
:10338000386F67467047002801D00748010000B534
:1033900003F042FD0022002300BD02000B000020CC
:1033A00000217047000000D0FFFFFFFF002B00D07E
:1033B000BFE0130C28D1002AE7D080B4114F396642
:1033C0007A66FFE7FFE730B4040C7B6F396F1B04AC
:1033D00023433B667A66FFE7FFE7FFE7C04684B218
:1033E0007B6F3D6F1B0423433B667A66FFE7FFE775
:1033F000C04600232C042D0C7A6F386F00196941E8
:10340000B0BC7047000000D0F0B594460025140E03
:1034100001D112020835140F01D112010435940FA5
:1034200001D192000235D40F01D152000135D40BE5
:103430000134254F7C66254C3C660E0C93B2FFE7A9
:10344000FFE7FFE73C6F6643360C7703BE467343E6
:10345000DF0B5B04C01AB941130C7343DB18C91AA4
:10346000CE086643360CB64493B273431F0F1B015C
:10347000C01AB941130C73431F0B1B05C01AB94185
:10348000860D8F023E436643360C092D24DB520A1B
:103490007243801A7703460A6643360C16235B1B79
:1034A000DE40DF40BF1964466643821B7046043528
:1034B00006330100D940A840C01900D30131A2420F
:1034C00006D20023F0BD0000000000D0FFFFFFFF88
:1034D000121B0130F3D3F1E709277F1BFE4064463E
:1034E000A2B27243801A00D20139220C7243130C2B
:1034F0001204821A99410B007046043513370100FB
:10350000F940A840801900D30131002B02D1A2421A
:103510000AD2F0BD013000D30131121BFAD2013BB7
:10352000F8D1A24200D2F0BD013000D30131121B0C
:10353000F7E7F0B51C0C00D080E00CB400251C0AA5
:1035400004D11B02160E3343120208351C0B04D1A2
:103550001B01160F3343120104359C0B04D19B0051
:10356000960F334392000235DC0B02D192185B4177
:1035700001351C00971864410134464F7C66464C67
:103580003C660E0CFFE7FFE7FFE7C0463C6F664373
:10359000360C7703BE4697B27743C01B00D2013981
:1035A000C01B00D201399FB27743C91BC91B170C3E
:1035B00077437E04FF0B801BB941CE086643360C6F
:1035C0000C2D33DBB644120B1F053A431B0B97B28D
:1035D0007743C01B00D201399FB27743C91B170C38
:1035E00077433E043F0C801BB941860D8F023E435A
:1035F000664329277F1BFE400C3D7746AF40BF192D
:1036000030BCA2B2ABB272437343801A9941220C10
:103610007243130C1204801A994102000B00013707
:10362000001BA941F9D2781E0021F0BD0C277F1B99
:10363000FE4077467F0BAF40FF19E0E700245D1C9A
:1036400007D0144F7D663966FFE7FFE7FFE7FFE726
:103650003C6F95B29EB265436643401BB141150C69
:103660001E0C6543664336042F0C3E432D04401B5D
:10367000B141994204D202000B0020000021F0BDAC
:1036800001D19042F7D3801A994101349942F2D383
:10369000F6E70000000000D0FFFFFFFF4840414078
:1036A000484018B41B4B5B68FC46019308BD04DF1F
:1036B0003B39001018B4174B1B68FC46019308BD3A
:1036C00000DF453900109446134A926F920809D2E0
:1036D000624618B40F4BDB68FC46019308BD0CDF53
:1036E000FD3B00100C4AF0B5146E556E576F166F07
:1036F0006246FFF7EEFF084A14665566576716677D
:10370000F0BD18B4034B9B68FC46019308BD08DF6D
:10371000A13A0010B8090020000000D0FFB55040C9
:103720004240504059404B40594000E0FFB5154FD2
:103730004C00640D03D0BC4204D10C0314D800200B
:10374000090D09055C00640D03D0BC4204D11C03C3
:103750000AD800221B0D1B0501264B4009D44B4003
:1037600003D58B4200D18242FFBD9942FCD19042E9
:10377000FFBD0B43DB1803431343F5D0C94349187E
:10378000FFBD0000FF07000000B5FFF7CFFF80413D
:1037900000BDC04600B5FFF7C9FF01D9002000BD3C
:1037A000012000BD00B5FFF7B9FF01D9002000BD21
:1037B000012000BD00B5FFF7B1FF804100BD012031
:1037C00040054A00121804D85A00121801D80020E7
:1037D000704701207047002070470000002100283A
:1037E00005D17047C1174840401AFAD0C90713B530
:1037F000064B1B6898470CBC441CA2401005120BDA
:103800000349091B09051943114310BDF815002090
:103810001F04000010B54C00620D8023D218DB009D
:10382000D21A5B057E2A10DD9E3A13DACC17090303
:10383000490819435242D140640001341532202A0C
:1038400005DAD0400843604310BD002010BD084693
:10385000604310BDC80FC018013810BD18B4044B28
:103860005B6AFC46019308BD24DFAD3D00100000FB
:10387000B8090020132370B51D78012D15D010DD77
:103880001C48FFF779FC1C4C01008022200000F04E
:103890005BFB022D06D01948FFF766FC184B186039
:1038A00070BD154C174BA364F5E7164B124C236003
:1038B0006360A360E36023616361A361E3612362EA
:1038C0006362A362E36223636363A363E3632364CA
:1038D0006364A364E36423656365A365E3652366AA
:1038E0006366A366E36623676367A367E367A3640E
:1038F000D1E7C04653440000B80900204C33000013
:10390000F81500200939001007B5604601880A0A39
:103910000230DF2AFAD1C9B2820804D30288408873
:103920000004104300E00068014A5050039007BDB6
:10393000B80900200FB403BC0CBCF0B50124E407A7
:10394000634000E0F0B50C0DCF0F661E3605891BF5
:10395000640503D3C943404200D30131640D03D051
:10396000661CF60A07D0E41B00207F00791C89073B
:103970008912803C24031D0DDF0F6E1E36059B1B34
:103980006D0503D3DB43524200D301336D0D03D0E9
:103990006E1CF60A07D0ED1B00227F007B1C9B07E4
:1039A0009B12803D2D032F1B661B58D4A446202E4E
:1039B00046DA20371400BC401D00BD40F2403341C0
:1039C0002A4380185941CB0F05D0C943C043002278
:1039D00064425041514162464D0D28D10D0D07D131
:1039E00000281FD0241940414941013A0D0DF9D05A
:1039F000640006D3013000D30131002C01D140080E
:103A00004000013A0BD4941CE40A04D1120511447D
:103A1000DB071944F0BDD907204B194300E0D90753
:103A20000020F0BD0029DDD1002CDBD1F0BD01323A
:103A3000C6074008CD0728434908002EE1D0D9E742
:103A40003C2E29DA203E40371400BC4000D001242F
:103A5000F24014431A00BB401C43D317ACE7AC46FA
:103A6000202F08DA20360400B4400D00B540F8409D
:103A700039412843A5E73C2F0CDA203F40360400AB
:103A8000B44000D00124F84004430800B1400C4386
:103A9000C117EAE710001900002494E70000F07F46
:103AA000F0B50C0D661E3605891BE60A6405640D2B
:103AB00002D0651CED0A04D0002001210905803CDC
:103AC0002403A4461C0D671E3F05DB1BE70A6405A3
:103AD000640D02D0651CED0A04D0002201231B05F1
:103AE000803C24037740644497B484B296B2744314
:103AF000070C7E43150C6F4380B26843361802D31F
:103B0000012000043F183004350C00197D41844623
:103B100088B29AB250430C0C62431F0C7C438EB2A5
:103B20007E43921902D301263604A4191604170CF9
:103B30003618674101BC81B29AB25143040C62430A
:103B40001B0C5C4380B25843121802D301200004BE
:103B500024181004130C401863412D185E410020F6
:103B6000474106BC88B293B258430C0C6343120C15
:103B7000544389B251435B1802D3012109046418EC
:103B800019041A0C091862416D185641002047416A
:103B900018BCF902720D1143F0026A0D1043ED02D8
:103BA0000A0D03D16D1940414941013B124E9B1B47
:103BB0007600B3420ED26D0007D30130002671416A
:103BC0006646354301D1400840001B05C918E4078B
:103BD0002144F0BD0BDA013306D1013004D10131AB
:103BE0004F0D01D04908F2E7E1070020F0BD013692
:103BF00031050020EBE70000FF030000F0B51C0DCD
:103C0000671E3F05DB1BE70A6405640D02D0661CD6
:103C1000F60A04D0002201231B05803C2403D02592
:103C20002D060026F6432E661E096E66CE0FF61987
:103C3000B44649004F0D02D07E1CF60A03D0002086
:103C40000021403F3F033E1BB600B444013F7F05C7
:103C5000C91B49082E6F013676089C02950D254335
:103C60007543ED137543AD1301356D10F603761BE7
:103C70000CB4CC02450D2C43A2B2B3B25A43270C6C
:103C80007B43350C6F43A4B26C431B1902D3012450
:103C900024043F191C041D0CA4187D4124196D41F6
:103CA000009A91B2ACB26143170C7C432B0C5F437A
:103CB00092B25A43A41802D301221204BF1822045C
:103CC000230C52187B41019C6C431B19520ED901E5
:103CD0000A434401A01A81B2B2B2514303145A43B9
:103CE000360C734387B27743D617D21900277E412B
:103CF00036049B191704160C7F185E417316ED18D5
:103D0000F301002680337541A90F06D16400690ACA
:103D1000E8055B0A184309D22FE00422944480335B
:103D20007541A90AA8059B0A184326D34041494179
:103D30002404009A019B0D005543641B4343E41A7D
:103D400095B286B27543170C7E43030C5F4392B263
:103D50005A43B61802D301221204BF183204330C9E
:103D600052197B4152429C41002C02D40022013066
:103D700051414008CA071043490802B06246D707BC
:103D80009210084BD218084B9A4203D21205891898
:103D9000C919F0BD0020002A01DC3900F0BD013353
:103DA0001905F5E7FD030000FE070000002200B53D
:103DB000203200F004F8080000BD000000220B15BE
:103DC0000AD410B5944600F031F81414013400DA26
:103DD0000021CB17144C204700200021704762447B
:103DE000343A0CD40C2A07DA040091409040524235
:103DF0002032D440214310BDD843D94310BD2032D6
:103E000007D40C469440524220321141D040204306
:103E100010BD0800C917203203D45242203210418D
:103E200010BD1800190010BDDF3D00100A0DCC0FA9
:103E3000531E1B05C91A520503D3C943404200D380
:103E40000131520D03D0531CDB0A07D0121B002096
:103E50006400611C89078912803A1203014BD21A4F
:103E600070470000FF03000051434343C9188C46CC
:103E7000110C83B24B4310B4040C614392B280B274
:103E8000504362431C041B0C001910BC594113041D
:103E9000120CC0185141614470470000132310B543
:103EA00012481C78FFF768F90100012C0AD003DDE5
:103EB00080220F4800F048F80E48FFF755F90E4BE6
:103EC000186010BD0A4C5422200000F03DF80B4B46
:103ED0006365A365E36523666366A366E36623679C
:103EE0006367A367E3672362E361E5E75346000086
:103EF000B80A00204C330000F8150020013F0010E4
:103F000007B5604601880A0A0230DF2AFAD1C9B231
:103F1000820804D3028840880004104300E000684F
:103F2000014A5050039007BDB80A002001480421FF
:103F3000014B18471004002089310010014B1B6809
:103F40001847000010040020014B5B681847000070
:103F500010040020030010B5080011001B689847EA
:103F600010BDC046F0B54F464646D646C0B5437C68
:103F700007000E001500002B3DD000200024002A71
:103F800034DD4B1E98461E4B99460DE043461B5DA3
:103F90000D3B5A425341621C9246325DDBB20A2A03
:103FA0000AD0554517D05446002CEFD1621C9246DA
:103FB000325D3B7C0A2AF4D1002BF2D1A04203DA15
:103FC000211A3B6830189847484602213B689847B9
:103FD00050465545E7D1A84203DA291A3B68301804
:103FE0009847335D0D3B5A4253413B74E0BCBA469F
:103FF000B146A846F0BD0368110030009847F5E7C8
:1040000038710010F0B5C6460B6806000C0000B50C
:10401000802B06D05A1C2260E418267180BCB8465A
:10402000F0BD0F4B1D68002D16D00B1D98460D4F8F
:1040300002E0ED68002D0FD02B68002BF9D03B6813
:10404000002B01D0AB42F4D1280041462268FFF793
:1040500089FFED68002DEFD101220023DBE7C04688
:10406000B4110020B8110020F0B557464E46454621
:10407000DE461C00D023E0B51B061F68344B83B01E
:1040800006000D00180001A991469A4602F0D4FEE0
:104090008046002808D1019B7FB29F4204D0504641
:1040A00002F0DAFE012398466B1C03D1300002F0C7
:1040B0000BFE0500002C27D1264F274B1C68002C37
:1040C00018D04B46002B21D1244B994602E0E468DE
:1040D000002C0FD02368002BF9D04B461B68002B17
:1040E00001D0A342F3D120002A003100B847E46890
:1040F000002CEFD14346002B25D103B0F0BCBB46CA
:10410000B246A946A046F0BD154FD6E7134B9946D7
:104110000A239B4602E0E468002CEBD02368002BC6
:10412000F9D04B461B68002B01D0A342F3D12A00E3
:1041300031002000B8475A466B4620001A7101A989
:104140000122B847E7E7504602F05EFED5E7C046D9
:104150008C080020653F0010B4110020B811002029
:10416000553F0010F0B5CE46474680B583B06B464C
:10417000DE1CD02330701B061C681F4B804601A933
:104180001800994602F058FE071E20D01B4B1C68F1
:10419000002C28D01A4D02E0E468002C0FD02368D0
:1041A000002BF9D02B68002B01D0A342F4D12000C2
:1041B00001223100FFF7D6FEE468002CEFD1002F7A
:1041C00011D1404603B0C0BCB946B046F0BD019B1A
:1041D00064B29C420BD0484602F03EFE074B0127DA
:1041E0001C68002CD6D1484602F00EFEE9E7034BCE
:1041F0001C68002CCED1E4E78C080020B41100200C
:10420000B811002070B5040002F05EFD002301002B
:10421000050001222000FFF727FF084B1C68002C37
:1042200006D06368002B05D09847E468002CF8D1CD
:10423000280070BDE468002CF3D1F9E7B411002028
:104240000D4A1368002B13D0834202D109E0984233
:1042500008D01A00DB68002BF9D1002900D0D0600B
:1042600070471A000029FBD1DB68D360C160F7E713
:104270000029F5D01060F3E7B4110020F0B54746EF
:10428000CE46D02380B51B061F682D4BA3B004007B
:104290000D00180001A9984602F0CEFD061E07D1B8
:1042A000019B7FB29F4203D0404602F0D5FD01360C
:1042B0008422002101A8FFF741FE2B0022002148A3
:1042C00001A9FEF721FF019B0700002B14D11E4B13
:1042D0001C68002C06D06368002B0BD09847E4685C
:1042E000002CF8D1002E25D1380023B0C0BCB9462F
:1042F000B046F0BDE468ECE7134B1D689946002D0D
:104300001CD0124C02E0ED68002D0FD02B68002B62
:10431000F9D02368002B01D0AB42F4D12800019AD8
:1043200002A9FFF71FFEED68002DEFD14B46019566
:104330001C68CEE7404602F067FDD5E70195D1E75E
:104340008C08002005400010B4110020B811002096
:104350000FB400B583B004A901C90191FFF78EFF26
:1043600003B008BC04B0184710B500F083F910BDC5
:10437000F0B5CE46474680B583B00400FCF77AFC22
:10438000260002000B000027B6185F41B94232D860
:104390002FD0B9461B4B1C4D984643461C68002C39
:1043A00003D116E0E468002C13D02B68002B01D059
:1043B000A342F7D1A368002BF4D0012101A89847AC
:1043C0000028EFDD6B46187903B0C0BCB946B04693
:1043D000F0BD01200021FCF757FC0C4B5A6A4A45FE
:1043E000DBD39B6AB34201D24A45D6D0012040427A
:1043F000EAE7B042CDD901235B42994601267642D5
:10440000F717C7E7B4110020B8110020004005409D
:104410007047C0460022014B1A7070472E160020CC
:104420004B790020FF2B0BD18B79002B08D1CB7956
:10443000012B05D1082A03D9024B8A7809301A705A
:104440007047C0462E1600200120704770B5002925
:1044500015D115495379107909781B0203430020BF
:10446000994200D070BD5378012B0AD0022BF9D1AC
:10447000002064220021FDF7E1FA0120F2E701208B
:10448000F0E79478D278050012021443D20502D5E1
:10449000620A93401D000548FEF766FE7F21030077
:1044A000214028009847C0462E16002055420000A3
:1044B00001230370004870473C7100104B780A7864
:1044C0001B0213438A7810B512041A43CB781B06DB
:1044D00013439622D200934200D010BD0348FEF74A
:1044E00043FE0021030008009847C04655420000E3
:1044F00070B5184C82B006000D00200001A902F032
:104500009BFC002808D1D0231B06019A1B689A4205
:104510001CD0200002F0A0FC002001F099FD002832
:1045200007D103256D42200002F06EFC280002B086
:1045300070BD002001F0A4FD0028F2D02A00310057
:10454000002001F0A9FD051EEBD0ECE703256D422C
:10455000ECE7C04600160020F0B5DE464E46574652
:10456000C0B5344B82B081460D00180001A99B46AE
:1045700002F062FC002808D1D0231B06019A1B68B8
:104580009A4250D0584602F067FC002001F060FDCE
:10459000002840D00024002D42DD274B9A4612E02F
:1045A0004B460020191901F0EBFD060000F0C4FD98
:1045B000002001F0A9FDFCF75DFB5346186059602F
:1045C000A419AC422CDA002001F0F4FD2E1B0200ED
:1045D000B04200DD3200002AE2D100F0ADFD002043
:1045E00001F092FD002001F033FD002818D00020DA
:1045F00001F0E0FD0028E4D1FCF73CFB0027534626
:104600000E4E1A685B6892197B41994208D8D8D13E
:104610009042D6D904E000200021074B1860596071
:10462000584602F0F1FB02B0E0BCBB46B246A946D8
:10463000F0BDC04600160020B009002020A10700F0
:104640001F2010B5FDF71EF8FA200021800010BDD4
:1046500010B5074C0021200002F0EEFB002800D12D
:1046600010BD00F069FD200002F0CEFBF8E7C04667
:104670000016002070B51E4B84B01B7801F082FF3D
:104680001F201C49FDF70EF801211F20FCF7E8FF51
:104690001948FCF7FFFBFCF75FF90600FCF7EAFAA4
:1046A000FA2204000D000023920012196B41994276
:1046B00014D811D001210291002101910F4930003D
:1046C0000091FCF74DF90400631E9C41E4B2002800
:1046D00008D1200004B070BD9042EBD901225242B3
:1046E000D317E7E701210648FFF7AAFDF1E7C04627
:1046F0004C73001051460010001600204146001077
:104700002004002000487047F471001000487047F2
:10471000A071001070B5040016480378002B20D05B
:10472000002C06D1144B15484380063BFF3B038009
:1047300070BD052C1CD8124BA400E4580F4801236F
:10474000811C013C04E001330A800231142B0CD09F
:10475000E25CDDB2002AF6D1C0236D009B002B4342
:10476000E5E7112102F0A0F9DAE7CA239B00DEE7B2
:104770000020DDE718160020090400008C1100203D
:1047800008720010F0B5982357464546DE464E465F
:10479000664AE0B5D75880253C006D02883B9A46B2
:1047A00085B02C402F420FD001222321604B0020E6
:1047B0005A54DA705F4901F017FA80225E4B920278
:1047C0001A655E4B2C009A46FB0617D480235B01CA
:1047D0001F4247D18023DB011F4200D07CE08023B1
:1047E0001B021F4200D085E0BC4200D099E005B01A
:1047F000F0BCBB46B246A946A046F0BD4B4B9B6DF4
:104800009846002B29D04C4B00249B460123994607
:10481000474B012603934346B8461F0004E001348A
:104820007600E4B2202C17D03742F8D05B469E6564
:104830004B466508A3436D00ED18039B6D019C4634
:104840006544280000F008FB00285ED10134B7431E
:10485000E4B27600002FE5D1474680235B01544641
:104860001F42B7D01C430023304A00211360314A55
:1048700033489360D360136153619361D3611362D2
:1048800053629362D362136353639363D36313647A
:1048900053649364D364136553659365D36513665A
:1048A00053669366D366136753679367D367F022A3
:1048B0009200FFF743FB234B234A00211A6000209C
:1048C000012201F067F980221B4B12031A65802335
:1048D000DB011F4200D182E70122042100201C439A
:1048E00001F0C8F81022144B1A6580231B021F42E6
:1048F00000D179E70122052100201C4301F0BAF81C
:1049000080220D4B12011A656EE74B46AA8AA978E0
:1049100000200093002301F08FF9280000F0DAF95D
:1049200094E7210009487940FCF724FD000011506C
:10493000BC11002000001050003011501000010088
:10494000FC110020C41500208001105020720010BE
:1049500010B501210520FCF783FE10BD10B5002223
:104960000021024800F0DEF910BDC046DC11002035
:104970008022024B5202DA647047C0460020115078
:10498000F0B5C64600B5060000F07EF90C232E4DAA
:104990000520AB672D49FCF785FE402398462C4C3B
:1049A000402200212000FFF7C9FA43460127A383D4
:1049B00021210023274A6770A260136063545F318E
:1049C00061844146A18702396354234A23496360C5
:1049D000E260A1620B60E262214A636220009360A0
:1049E000D360136153619361D36113625362936225
:1049F000D362136353639363D36313645364936405
:104A0000D364136553659365D365136653669366E4
:104A1000D366136753679367D367F0220021920030
:104A20004030FFF78BFA0F4B0F4A30001A6080239B
:104A30009B052F64EB6490230C4AEA50FFF798FF24
:104A400080BCB846F0BDC04600001150854700103C
:104A5000BC11002084001050000110508000105044
:104A600000001050C41500208001105010D001002B
:104A70000B785B0602D14B78052B00D070478A7803
:104A8000014B1A60FAE7C04600001150F0B5CE465F
:104A90004746072380B548798E780A790340C8785D
:104AA0007F21800731401B02F40913434F00820F1E
:104AB000944691462A4D3A195201AA189670012639
:104AC00066405670604600269383D6709077CA0081
:104AD000012C29D023488446880162448446AC4492
:104AE000604682601660002929D01F4AC90090469E
:104AF000414441603F223F3393434A46022A00D15A
:104B00005B001A493F190A687F01D3180B60184BE4
:104B1000ED195340EA604A469006184380236A68BC
:104B20001B060343136010E0124884468801624468
:104B30008446AC4460468262166000290AD1002394
:104B400064012C1963600C4BE3600120C0BCB946C2
:104B5000B046F0BD064AC900904641444162C9E7EB
:104B6000BC1100208400105004001050C415002017
:104B70000000105080001050000110500022154B12
:104B800010B59A60DA601A615A619A61DA611A6244
:104B90005A629A62DA621A635A639A63DA631A642F
:104BA0005A649A64DA641A655A659A65DA651A660F
:104BB0005A669A66DA661A675A679A67DA67F0324F
:104BC000920000210448FFF7B9F9044B044A1A6027
:104BD00010BDC04600001050FC110020C41500207C
:104BE0008001105010B57F200C0020404000E409E7
:104BF000110000191A00034B4001C01800F092F890
:104C0000012010BDBC1100207F23180010B5084002
:104C1000CA090B4203D107497D3B9B1A8B664000B2
:104C200080188022044B40010021C018120100F0BE
:104C300057F810BD00201150BC1100207F22130036
:104C400010B50B400A4200D110BDC9095B005B18CA
:104C500004485B01C018002300220349C37000F020
:104C60003FF8F1E7BC110020FFF7FFFF7F21C209E9
:104C7000034B9200014010B5D2580248FCF77AFB72
:104C8000340400203472001080220D4B520410B501
:104C90001A600C4B0C491A6010008B689843FBD1CA
:104CA0000A4C9C2200212000FFF748F980220021B5
:104CB00052010748FFF742F90923636710BDC04658
:104CC00000E0004000F0004000C000400000115033
:104CD0000000105000230374438283828361704775
:104CE00010B58368002901D01C682140002A11D02A
:104CF0008024E400114322420CD01A6822420BD1D6
:104D0000074A0A401A60FFE7FFE7FFE7FFE7FFE710
:104D1000FFE78368196010BD8078FFF7A7FFC046E2
:104D2000FFFBFFFFF0B5C646002300B583820133C9
:104D30000374436804001F68838B81611E1C9342C7
:104D400000D9161C8020B6B2921B93B2E278C00044
:104D5000304315008446681E854160466D03054357
:104D600001204240E27062786382002A4FD0002B1B
:104D70001DD1A023DB011D43334B1B6C8023334A21
:104D80009B053A40134362681360A26813685B0591
:104D900057D42F4B2B401360FFE7FFE7FFE7FFE7F8
:104DA000FFE7FFE7A3681D6080BCB846F0BD802226
:104DB00052011543244A126C920702D4A278D209F8
:104DC000DCD0A28B111C9A4200D9191C8AB2802116
:104DD000C90011439B1A9046E2789BB21600701EE0
:104DE000864176030E4301214A40E2706278638275
:104DF000002A18D0002B02D18023DB011E43A02300
:104E0000144A36043A40DB0535431343BBE732000E
:104E1000E068FFF799F8A3699B19A36180231B023F
:104E20001D43638AA3E7E0684246A1694030FFF76B
:104E30008BF8A3694344A36180231B021E43638A4A
:104E4000D8E7A078FFF712FF00001150FFFFFFAF77
:104E5000FFFBFFFFFFFFFFDFF0B5C64600B5067C96
:104E60000400002E00D1CEE083681A681D684378E4
:104E7000AD05AD0D002B50D1838AEB189BB2838218
:104E8000A18B62688D4206D20023638213683000D2
:104E900080BCB846F0BD1268520002D58D4200D1E8
:104EA00077E0638A002BF2D062681E1C17688B4281
:104EB00000D90E1CE17880220D00681E8541B6B233
:104EC000D20032436D03154301229B1B514062788F
:104ED0009BB26382E170002A6AD0002B2AD1A02302
:104EE000DB011D434D4B1B6C80234D4A9B053A4013
:104EF000134362681360A26813685B0500D589E0FC
:104F0000484B2B401360FFE7FFE7FFE7FFE7FFE7B2
:104F1000FFE7A36800261D60B9E72A008069E16801
:104F2000FFF712F8A38AA269EB189BB25219A38269
:104F3000A261A5E7802252011543384A126C9207FC
:104F400002D4A278D209CFD0A28B111C9A423CD8AD
:104F50008AB28021C90011439B1A9046E2789BB225
:104F60001600701E864176030E4301214A40E2700E
:104F700062786382002A38D0002B02D18023DB01C3
:104F80001E43A023284A36043A40DB053543134329
:104F9000AFE7A26815686278AD01AD0D002A16D1A1
:104FA000EB18A3828D4200D37BE7002363826EE778
:104FB0003200E068A169FEF7C7FFA3699B19A361EE
:104FC00080231B021D43638A87E7191CC0E7E16841
:104FD0002A004031A069FEF7B7FFA38AA18BEB1826
:104FE000A382A3695B19A361DCE7E0684246A1697B
:104FF0004030FEF7A9FFA3694344A36180231B024D
:105000001E43638AB8E77F238178084A084819401D
:10501000FCF7B0F9A078FFF729FEC0460000115058
:10502000FFFFFFAFFFFBFFFFFFFFFFDF34040020A8
:1050300054720010024B5878431E9841C0B270471A
:10504000F40E0020024B18784007C00F7047C0468E
:10505000F40E0020014B18787047C0462A16002035
:10506000F8B54746CE4680B5294F05003B78002B62
:1050700004D00120C0BCB946B046F8BD532200217F
:105080002448FEF75BFF244C2000FBF703FF234B73
:105090001C60234C20001C30FBF718FF200001F09F
:1050A000B7FC204B204E1C60204B9846002B04D0B0
:1050B0003000FFF7FDF91E4B18604246002433789C
:1050C000002A1DD01B4A9046194A91469C4210D393
:1050D0001BD14346984701343378E4B2A342F5D25A
:1050E0002800FFF74DFC2800FFF732FC01233B703E
:1050F000BFE74B461A6863001B19DB009B58E9E7C2
:1051000001F064F83378002BEAD000231B68FFDE3F
:105110002A160020F40E0020AC0E0020480F0020BC
:105120003C0400204C0F002029160020B144001040
:10513000BC0B0020CD610010F0B5DE4657464E4650
:105140004546E0B58FB001F023FA002800D161E1B7
:10515000CA4BCB4E9B465D46CA4B0BAC0093CA4B29
:1051600001933768FA69EFF3108172B61368002B68
:10517000FCD0BFF35F8F39623800210001F0C0FA24
:10518000FA693B6ABFF35F8F0021116083F31088D7
:10519000002800D13EE16378082BE2D89B00EB5851
:1051A0009F466368002BDCD0A0689847D9E77F2032
:1051B0002179B64A084043009C4613006344984650
:1051C000CF09B844424601233032D7789F43D77085
:1051D000D77803339F43D770002800D121E143469D
:1051E000AB4ADB7C002A06D0AA4A1278934200D24E
:1051F000ABE19B1ADBB2002B00D00BE1A64FA368FA
:1052000062792078B847ACE7A04B01229A461B7818
:10521000012113435246137033235046D25C574644
:105220008A43C254C25C04208243FA540133FA5CBC
:105230008A43FA54FA5C8243FA54237800209B464E
:1052400000F078FE602223791A40602A0DD0402AAF
:1052500000D103E1DB06DB0E012B00D180E1022B44
:1052600000D133E1002B00D122E120780021FFF7AB
:10527000CBFC80212078FFF7C7FC72E7834B1B78BB
:10528000DB0700D46DE7854B002B00D169E700E018
:1052900000BF66E77D4A1378DB0700D461E7804BE7
:1052A000002B00D15DE710780007C00F00E000BFC1
:1052B00057E7784F764A00213B78002A00D1B6E0C4
:1052C000714A91463A000F0090469F4208D39F4290
:1052D00000D0AFE00137FFB29F4200D941E7F6D2DC
:1052E0004A4611687A00D219D2008A185269002AF7
:1052F000F0D020789047434601371B78FFB29F4299
:10530000E3D92EE72378634F614A994600213B7821
:10531000002A00D19AE0634AB446924638000F0052
:105320002900594A4E46554693468A468046E146EC
:10533000BB425FD800D086E02B0030009847434640
:1053400001371B78FFB2BB42F2D24E4655464F4F53
:10535000532200213800FEF7F1FD1022FF21F81C36
:10536000FEF7ECFD38002022FF211330FEF7E6FDAA
:1053700000F0D6FD4C4B002B00D1F2E600E000BF60
:10538000EFE62378434F424A994600213B78002AB2
:1053900053D0444AB446924638000F0029003A4A96
:1053A0004E46554693468A468046E1469F4229D35B
:1053B00049D12B0030009847434601371B78FFB294
:1053C000BB42F3D24E465546304F5322002138009F
:1053D000FEF7B4FD1022FF21F81CFEF7AFFD3800E8
:1053E0002022FF211330FEF7A9FD00F099FD23795B
:1053F000BB70B6E65B461A687B00DB19DB00D3188E
:105400005B689AE75B461A687B00DB19DB00D31800
:105410005B68CFE70FB0F0BCBB46B246A946A046DA
:10542000F0BDA3686279207800F098FD99E6002B22
:1054300000D196E600235B69FFDE484600F004FFDA
:105440003B78002BC0D000235B68FFDE484600F0AD
:10545000FBFE3B78002B00D179E7F4E713480028E6
:1054600000D102E700F066FD002158460CAA00E0DA
:1054700000BF002800D074E6F7E6C046887200102E
:105480004C0F002075620010BC0B0020F40E0020B1
:10549000B1440010291600203D64001000000000F7
:1054A0000000000049620010000000000000000041
:1054B000202A00D189E0002A00D0D6E66379092BA2
:1054C00000D9D2E6C64A9B00D3589F467023217A62
:1054D0000B4200D0C9E60F330B405B009C465046A0
:1054E000CF096044C019C07C02938446BD4800289F
:1054F00008D0BD480078844500D289E06346181A78
:10550000C3B29C46604600287CD1002A00D00CE142
:10551000B64B98460220627991468243012A00D117
:1055200007E14A46002A00D09FE6029B0AAA53449C
:10553000DB193033DB7802329B07DB0F13805846D0
:1055400002230CA900F096FC0BE6A94A5800126849
:10555000C318DB00D318002B00D15BE71F694EE6B0
:10556000237A0F2B00D980E69E4A5344DB78002A29
:1055700005D09D4A1278934265D39B1ADBB2002B6B
:1055800000D072E69B48994F00F0D4FC00215846A9
:10559000FB680CAA9847002800D0E2E560221700BB
:1055A00023791F401A4200D05FE663790A3B012B42
:1055B00000D95AE600F0BEFC63790A2B00D1E7E07F
:1055C00058460CA900F040FCCBE5237A0F2B00D9FC
:1055D0004BE6844A5344DB78002A06D0824A12788C
:1055E000934200D2C9E09B1ADBB2002B00D03CE60C
:1055F00080487E4F00F09EFC00215846FB680CAAB4
:10560000984736E7002A00D02FE60023984681E726
:1056100063465B009846E0444346DB009846744886
:1056200000688044002A00D174E74346002B00D173
:105630001BE6D86800F07EFC434600215846DB6834
:105640000CAA984715E76A4A59001768CB18DB007F
:10565000FF18002F00D108E6F86895E7E388012BD2
:1056600000D002E608223B78934352461370A7E726
:10567000022039780AAB9A1C8B068908DB0F01409F
:105680000B435BE7A27905927B789A4207D07B783F
:10569000002B00D036E1059B002B00D0B0E0534634
:1056A000059A58460CA95A7000F0CEFB59E57B7854
:1056B0000AAA02321370584601230CA900F0DAFB43
:1056C0004FE5E088030AC0B20F2B00D9CDE54A4967
:1056D0009A008A5897460CA800F032FC5846A179E7
:1056E000FFF73CF902223B7813433B7039E5E3882E
:1056F000012B00D0B9E508223B781343B5E7022B14
:1057000000D1A0E13D4B002B00D1AEE500E000BF91
:105710000200002A00D1A8E5D37891781B020B4340
:1057200058460CA900F0A6FBA3E6304B314898463A
:1057300080E7E288002A09D14B46012B3DD0029B2D
:105740005344DF193037FB789B072AD54346002B9B
:1057500000D106E5D86800F0EDFB43460CAADB68F3
:10576000002158469847002000F0E4FB34235246BD
:10577000D35CDB0700D5F4E422E71D4A5900176823
:10578000CB18DB00FF18002F00D16EE5F86831E779
:105790000AAB9A1C584601230CA9177000F06AFB4B
:1057A000DFE45846FFF730FA0222FB781343012268
:1057B000FB70FB781343FB70C8E7029B5344DF196F
:1057C0003037FB789B07C1D55846FFF737FA0222DE
:1057D000FB7893434A46FB70FB789343FB70B5E735
:1057E000AC720010B1440010291600201473001090
:1057F000BC0B002059630010D472001000000000A0
:10580000581EC0B2FEF782FF002800D12DE5437874
:105810000793022B00D028E50121C379A9469A11EC
:105820005B110A400B4052011B0113435246127890
:105830002F318A43134352461370092398468044FC
:105840004746C37882781B021343C3180693804BE4
:10585000029604937F4B08937F4B0993069BBB42B0
:1058600000D8E7E001227B7803920B2B04D1FB7870
:1058700003933B78FF187B78042B40D1069B089A52
:10588000DB1B9BB29846049B00261B78002A14D190
:105890007BE0B34200D08AE0009B099D424639007C
:1058A00058469847082802D9434683420FD2049BA2
:1058B00001361B78F6B2B34221D3B342E9D9019A3B
:1058C000730015689B19DB00ED18AB68E6E7A84686
:1058D0000500039B012B00D1A0E0039B002B69D0A6
:1058E0000023B97805E0D6700133039ADBB2934206
:1058F00060D2CA18D2B25244D078FF28F3D04D46B5
:10590000029EB2E45846FFF739F9BB78514A504F2E
:10591000029300213B78002A30D0504A0392504A2B
:1059200091462A000D0090469D421FD300D08AE583
:10593000039B5846984701353B78EDB2AB42F3D212
:105940004546532200215046FEF7F8FA53461022EE
:10595000D81CFF21FEF7F2FA50462022FF21133017
:10596000FEF7ECFA5346029A9A7094E64B461A6890
:105970006B005B19DB00D3185B68DAE7584600F070
:1059800063FC3B78002BDCD05DE54246390058468D
:1059900000F070FC0500082802D94346834246D235
:1059A000049B4D461B78029E002B00D15DE4002332
:1059B0009B68FFDE5046330039002A00133000F0A8
:1059C00027FE049B7F191B78B34200D346E796E776
:1059D000244B002B00D148E400E000BF02009BE60E
:1059E000FEF790FE122302000CA9584600F042FA7E
:1059F0003FE51D4B002B00D137E400E000BF021E45
:105A000000D132E4584613780CA900F033FA30E59F
:105A10002189FEF77FFE021EF4D126E44246134B95
:105A200092689A4200D05BE7079B039358E70A4BC2
:105A300098464EE70E4B4D46029E002B00D12EE6B7
:105A400000E000BF2BE6FEF761FE020061E6C04603
:105A500029160020B1440010147300104962001090
:105A6000BC0B002000000000000000007562001068
:105A70000000000030B587B005000C000C220021AA
:105A80006846FEF75BFA6B461D705C70042C4FD0C5
:105A900009D8022C34D0032C19D13C4A13785B0767
:105AA00058D407B030BD052C11D1384A1378DB0724
:105AB000F7D5042113788B431370354B1C68E269CA
:105AC000EFF3108172B61368002B09D1FBE7304B5E
:105AD0001C68E269EFF3108172B61368002BFCD0EA
